{
  "contractName": "Hackathon",
  "abi": [
    {
      "inputs": [],
      "stateMutability": "nonpayable",
      "type": "constructor"
    },
    {
      "anonymous": false,
      "inputs": [
        {
          "indexed": true,
          "internalType": "address",
          "name": "previousOwner",
          "type": "address"
        },
        {
          "indexed": true,
          "internalType": "address",
          "name": "newOwner",
          "type": "address"
        }
      ],
      "name": "OwnershipTransferred",
      "type": "event"
    },
    {
      "inputs": [],
      "name": "isOwner",
      "outputs": [
        {
          "internalType": "bool",
          "name": "",
          "type": "bool"
        }
      ],
      "stateMutability": "view",
      "type": "function"
    },
    {
      "inputs": [],
      "name": "owner",
      "outputs": [
        {
          "internalType": "address",
          "name": "",
          "type": "address"
        }
      ],
      "stateMutability": "view",
      "type": "function"
    },
    {
      "inputs": [
        {
          "internalType": "uint256",
          "name": "",
          "type": "uint256"
        }
      ],
      "name": "pidToProject",
      "outputs": [
        {
          "internalType": "uint256",
          "name": "pid",
          "type": "uint256"
        },
        {
          "internalType": "string",
          "name": "name",
          "type": "string"
        },
        {
          "internalType": "string",
          "name": "description",
          "type": "string"
        },
        {
          "internalType": "uint256",
          "name": "votes",
          "type": "uint256"
        }
      ],
      "stateMutability": "view",
      "type": "function"
    },
    {
      "inputs": [],
      "name": "renounceOwnership",
      "outputs": [],
      "stateMutability": "nonpayable",
      "type": "function"
    },
    {
      "inputs": [
        {
          "internalType": "address",
          "name": "newOwner",
          "type": "address"
        }
      ],
      "name": "transferOwnership",
      "outputs": [],
      "stateMutability": "nonpayable",
      "type": "function"
    },
    {
      "inputs": [
        {
          "internalType": "uint256",
          "name": "timestamp",
          "type": "uint256"
        }
      ],
      "name": "setStartTime",
      "outputs": [],
      "stateMutability": "nonpayable",
      "type": "function"
    },
    {
      "inputs": [
        {
          "internalType": "uint256",
          "name": "timestamp",
          "type": "uint256"
        }
      ],
      "name": "setEndTime",
      "outputs": [],
      "stateMutability": "nonpayable",
      "type": "function"
    },
    {
      "inputs": [],
      "name": "getStartTime",
      "outputs": [
        {
          "internalType": "uint256",
          "name": "",
          "type": "uint256"
        }
      ],
      "stateMutability": "view",
      "type": "function"
    },
    {
      "inputs": [],
      "name": "getEndTime",
      "outputs": [
        {
          "internalType": "uint256",
          "name": "",
          "type": "uint256"
        }
      ],
      "stateMutability": "view",
      "type": "function"
    },
    {
      "inputs": [
        {
          "internalType": "string",
          "name": "_name",
          "type": "string"
        },
        {
          "internalType": "string",
          "name": "_description",
          "type": "string"
        }
      ],
      "name": "addProject",
      "outputs": [],
      "stateMutability": "nonpayable",
      "type": "function"
    },
    {
      "inputs": [],
      "name": "getProjects",
      "outputs": [
        {
          "components": [
            {
              "internalType": "uint256",
              "name": "pid",
              "type": "uint256"
            },
            {
              "internalType": "string",
              "name": "name",
              "type": "string"
            },
            {
              "internalType": "string",
              "name": "description",
              "type": "string"
            },
            {
              "internalType": "uint256",
              "name": "votes",
              "type": "uint256"
            }
          ],
          "internalType": "struct Hackathon.Project[]",
          "name": "",
          "type": "tuple[]"
        }
      ],
      "stateMutability": "nonpayable",
      "type": "function"
    },
    {
      "inputs": [
        {
          "internalType": "uint256",
          "name": "_pid",
          "type": "uint256"
        }
      ],
      "name": "castVote",
      "outputs": [],
      "stateMutability": "nonpayable",
      "type": "function"
    }
  ],
  "bytecode": "0x6080604052600067ffffffffffffffff811115620000225762000021620001c7565b5b604051908082528060200260200182016040528015620000515781602001602082028036833780820191505090505b50600590805190602001906200006992919062000156565b503480156200007757600080fd5b50336000806101000a81548173ffffffffffffffffffffffffffffffffffffffff021916908373ffffffffffffffffffffffffffffffffffffffff16021790555060008054906101000a900473ffffffffffffffffffffffffffffffffffffffff1673ffffffffffffffffffffffffffffffffffffffff16600073ffffffffffffffffffffffffffffffffffffffff167f8be0079c531659141344cd1fd0a4f28419497f9722a3daafe3b4186f6b6457e060405160405180910390a34260028190555061e100426200014a91906200022f565b6003819055506200028c565b82805482825590600052602060002090810192821562000195579160200282015b828111156200019457825182559160200191906001019062000177565b5b509050620001a49190620001a8565b5090565b5b80821115620001c3576000816000905550600101620001a9565b5090565b7f4e487b7100000000000000000000000000000000000000000000000000000000600052604160045260246000fd5b6000819050919050565b7f4e487b7100000000000000000000000000000000000000000000000000000000600052601160045260246000fd5b60006200023c82620001f6565b91506200024983620001f6565b9250827fffffffffffffffffffffffffffffffffffffffffffffffffffffffffffffffff0382111562000281576200028062000200565b5b828201905092915050565b611200806200029c6000396000f3fe608060405234801561001057600080fd5b50600436106100b45760003560e01c80638f32d59b116100715780638f32d59b1461016a578063980c308d14610188578063c828371e146101a4578063ccb98ffc146101c2578063dcc60128146101de578063f2fde38b146101fc576100b4565b80633e0a322d146100b95780633eb76b9c146100d5578063439f5ac2146100f1578063711469c41461010f578063715018a6146101425780638da5cb5b1461014c575b600080fd5b6100d360048036038101906100ce91906108a0565b610218565b005b6100ef60048036038101906100ea91906108a0565b610233565b005b6100f96102ee565b60405161010691906108dc565b60405180910390f35b610129600480360381019061012491906108a0565b6102f8565b6040516101399493929190610990565b60405180910390f35b61014a610438565b005b610154610507565b6040516101619190610a24565b60405180910390f35b610172610530565b60405161017f9190610a5a565b60405180910390f35b6101a2600480360381019061019d9190610baa565b610587565b005b6101ac61065d565b6040516101b991906108dc565b60405180910390f35b6101dc60048036038101906101d791906108a0565b610667565b005b6101e6610682565b6040516101f39190610da7565b60405180910390f35b61021660048036038101906102119190610df5565b6106e8565b005b610220610530565b61022957600080fd5b8060028190555050565b6000600160003373ffffffffffffffffffffffffffffffffffffffff1673ffffffffffffffffffffffffffffffffffffffff16815260200190815260200160002054116102eb5780600160003373ffffffffffffffffffffffffffffffffffffffff1673ffffffffffffffffffffffffffffffffffffffff168152602001908152602001600020819055506004600082815260200190815260200160002060030160008154809291906102e590610e51565b91905055505b50565b6000600354905090565b600460205280600052604060002060009150905080600001549080600101805461032190610ec8565b80601f016020809104026020016040519081016040528092919081815260200182805461034d90610ec8565b801561039a5780601f1061036f5761010080835404028352916020019161039a565b820191906000526020600020905b81548152906001019060200180831161037d57829003601f168201915b5050505050908060020180546103af90610ec8565b80601f01602080910402602001604051908101604052809291908181526020018280546103db90610ec8565b80156104285780601f106103fd57610100808354040283529160200191610428565b820191906000526020600020905b81548152906001019060200180831161040b57829003601f168201915b5050505050908060030154905084565b610440610530565b61044957600080fd5b600073ffffffffffffffffffffffffffffffffffffffff1660008054906101000a900473ffffffffffffffffffffffffffffffffffffffff1673ffffffffffffffffffffffffffffffffffffffff167f8be0079c531659141344cd1fd0a4f28419497f9722a3daafe3b4186f6b6457e060405160405180910390a360008060006101000a81548173ffffffffffffffffffffffffffffffffffffffff021916908373ffffffffffffffffffffffffffffffffffffffff160217905550565b60008060009054906101000a900473ffffffffffffffffffffffffffffffffffffffff16905090565b60008060009054906101000a900473ffffffffffffffffffffffffffffffffffffffff1673ffffffffffffffffffffffffffffffffffffffff163373ffffffffffffffffffffffffffffffffffffffff1614905090565b600061059283610705565b905060006004600083815260200190815260200160002060000154146105b757600080fd5b604051806080016040528082815260200184815260200183815260200160008152506004600083815260200190815260200160002060008201518160000155602082015181600101908161060b91906110a5565b50604082015181600201908161062191906110a5565b50606082015181600301559050506005819080600181540180825580915050600190039060005260206000200160009091909190915055505050565b6000600254905090565b61066f610530565b61067857600080fd5b8060038190555050565b6060600060058054905067ffffffffffffffff8111156106a5576106a4610a7f565b5b6040519080825280602002602001820160405280156106de57816020015b6106cb61082e565b8152602001906001900390816106c35790505b5090508091505090565b6106f0610530565b6106f957600080fd5b61070281610738565b50565b60008160405160200161071891906111b3565b6040516020818303038152906040528051906020012060001c9050919050565b600073ffffffffffffffffffffffffffffffffffffffff168173ffffffffffffffffffffffffffffffffffffffff160361077157600080fd5b8073ffffffffffffffffffffffffffffffffffffffff1660008054906101000a900473ffffffffffffffffffffffffffffffffffffffff1673ffffffffffffffffffffffffffffffffffffffff167f8be0079c531659141344cd1fd0a4f28419497f9722a3daafe3b4186f6b6457e060405160405180910390a3806000806101000a81548173ffffffffffffffffffffffffffffffffffffffff021916908373ffffffffffffffffffffffffffffffffffffffff16021790555050565b6040518060800160405280600081526020016060815260200160608152602001600081525090565b6000604051905090565b600080fd5b600080fd5b6000819050919050565b61087d8161086a565b811461088857600080fd5b50565b60008135905061089a81610874565b92915050565b6000602082840312156108b6576108b5610860565b5b60006108c48482850161088b565b91505092915050565b6108d68161086a565b82525050565b60006020820190506108f160008301846108cd565b92915050565b600081519050919050565b600082825260208201905092915050565b60005b83811015610931578082015181840152602081019050610916565b83811115610940576000848401525b50505050565b6000601f19601f8301169050919050565b6000610962826108f7565b61096c8185610902565b935061097c818560208601610913565b61098581610946565b840191505092915050565b60006080820190506109a560008301876108cd565b81810360208301526109b78186610957565b905081810360408301526109cb8185610957565b90506109da60608301846108cd565b95945050505050565b600073ffffffffffffffffffffffffffffffffffffffff82169050919050565b6000610a0e826109e3565b9050919050565b610a1e81610a03565b82525050565b6000602082019050610a396000830184610a15565b92915050565b60008115159050919050565b610a5481610a3f565b82525050565b6000602082019050610a6f6000830184610a4b565b92915050565b600080fd5b600080fd5b7f4e487b7100000000000000000000000000000000000000000000000000000000600052604160045260246000fd5b610ab782610946565b810181811067ffffffffffffffff82111715610ad657610ad5610a7f565b5b80604052505050565b6000610ae9610856565b9050610af58282610aae565b919050565b600067ffffffffffffffff821115610b1557610b14610a7f565b5b610b1e82610946565b9050602081019050919050565b82818337600083830152505050565b6000610b4d610b4884610afa565b610adf565b905082815260208101848484011115610b6957610b68610a7a565b5b610b74848285610b2b565b509392505050565b600082601f830112610b9157610b90610a75565b5b8135610ba1848260208601610b3a565b91505092915050565b60008060408385031215610bc157610bc0610860565b5b600083013567ffffffffffffffff811115610bdf57610bde610865565b5b610beb85828601610b7c565b925050602083013567ffffffffffffffff811115610c0c57610c0b610865565b5b610c1885828601610b7c565b9150509250929050565b600081519050919050565b600082825260208201905092915050565b6000819050602082019050919050565b610c578161086a565b82525050565b600082825260208201905092915050565b6000610c79826108f7565b610c838185610c5d565b9350610c93818560208601610913565b610c9c81610946565b840191505092915050565b6000608083016000830151610cbf6000860182610c4e565b5060208301518482036020860152610cd78282610c6e565b91505060408301518482036040860152610cf18282610c6e565b9150506060830151610d066060860182610c4e565b508091505092915050565b6000610d1d8383610ca7565b905092915050565b6000602082019050919050565b6000610d3d82610c22565b610d478185610c2d565b935083602082028501610d5985610c3e565b8060005b85811015610d955784840389528151610d768582610d11565b9450610d8183610d25565b925060208a01995050600181019050610d5d565b50829750879550505050505092915050565b60006020820190508181036000830152610dc18184610d32565b905092915050565b610dd281610a03565b8114610ddd57600080fd5b50565b600081359050610def81610dc9565b92915050565b600060208284031215610e0b57610e0a610860565b5b6000610e1984828501610de0565b91505092915050565b7f4e487b7100000000000000000000000000000000000000000000000000000000600052601160045260246000fd5b6000610e5c8261086a565b91507fffffffffffffffffffffffffffffffffffffffffffffffffffffffffffffffff8203610e8e57610e8d610e22565b5b600182019050919050565b7f4e487b7100000000000000000000000000000000000000000000000000000000600052602260045260246000fd5b60006002820490506001821680610ee057607f821691505b602082108103610ef357610ef2610e99565b5b50919050565b60008190508160005260206000209050919050565b60006020601f8301049050919050565b600082821b905092915050565b600060088302610f5b7fffffffffffffffffffffffffffffffffffffffffffffffffffffffffffffffff82610f1e565b610f658683610f1e565b95508019841693508086168417925050509392505050565b6000819050919050565b6000610fa2610f9d610f988461086a565b610f7d565b61086a565b9050919050565b6000819050919050565b610fbc83610f87565b610fd0610fc882610fa9565b848454610f2b565b825550505050565b600090565b610fe5610fd8565b610ff0818484610fb3565b505050565b5b8181101561101457611009600082610fdd565b600181019050610ff6565b5050565b601f8211156110595761102a81610ef9565b61103384610f0e565b81016020851015611042578190505b61105661104e85610f0e565b830182610ff5565b50505b505050565b600082821c905092915050565b600061107c6000198460080261105e565b1980831691505092915050565b6000611095838361106b565b9150826002028217905092915050565b6110ae826108f7565b67ffffffffffffffff8111156110c7576110c6610a7f565b5b6110d18254610ec8565b6110dc828285611018565b600060209050601f83116001811461110f57600084156110fd578287015190505b6111078582611089565b86555061116f565b601f19841661111d86610ef9565b60005b8281101561114557848901518255600182019150602085019450602081019050611120565b86831015611162578489015161115e601f89168261106b565b8355505b6001600288020188555050505b505050505050565b600081905092915050565b600061118d826108f7565b6111978185611177565b93506111a7818560208601610913565b80840191505092915050565b60006111bf8284611182565b91508190509291505056fea2646970667358221220673330ac8f5a19a1811d846ccdaea4766686657ca3f4070e9e7ef79c58116b7064736f6c634300080f0033",
  "immutableReferences": {},
  "source": "pragma solidity >=0.4.22 <0.9.0;\n\nimport \"./DaoUtils.sol\";\n\ncontract Hackathon is DaoUtils {\n\n    struct Project {\n        uint pid;\n        string name;\n        string description;\n        uint votes;\n    }\n\n    mapping(address=>uint) voters;\n    uint private startTime;\n    uint private endTime;\n    mapping (uint => Project) public pidToProject;\n    uint[] private projectList = new uint[](0);\n\n    constructor() {\n        startTime = block.timestamp;\n        endTime = block.timestamp + 16 hours;\n    }\n\n    function setStartTime(uint timestamp) external onlyOwner {\n        startTime = timestamp;\n    }\n\n    function setEndTime(uint timestamp) external onlyOwner {\n        endTime = timestamp;\n    }\n\n    function getStartTime() external view returns(uint) {\n        return startTime;\n    }\n\n    function getEndTime() external view returns(uint) {\n        return endTime;\n    }\n\n\n    //register new projects\n    function addProject(string memory _name, string memory _description) external {\n        uint pid = generatePID(_name);\n        require(pidToProject[pid].pid == 0);\n        pidToProject[pid] = Project(pid, _name, _description, 0);\n        projectList.push(pid);\n    }\n\n    function getProjects() external returns(Project[] memory){\n        Project[] memory projs = new Project[](projectList.length);\n        // for (uint i = 0; i < projectList.length; i++) {\n        //     uint id = projectList[i];\n        //     Project storage proj = pidToProject[id];\n        //     projs[i] = proj;\n        // }\n        return projs;\n    }\n\n    function castVote(uint _pid) external {\n        if(!(voters[msg.sender] > 0)) {\n            voters[msg.sender] = _pid;\n            pidToProject[_pid].votes++;\n        }\n    }\n}",
  "sourcePath": "/Users/Sukhitha/Desktop/hackathon/youre-going-daon/contracts/Hackathon.sol",
  "compiler": {
    "name": "solc",
    "version": "0.8.15+commit.e14f2714.Emscripten.clang"
  },
  "schemaVersion": "3.4.7",
  "updatedAt": "2022-06-16T22:08:07.661Z",
  "devdoc": {
    "kind": "dev",
    "methods": {
      "isOwner()": {
        "returns": {
          "_0": "true if `msg.sender` is the owner of the contract."
        }
      },
      "owner()": {
        "returns": {
          "_0": "the address of the owner."
        }
      },
      "renounceOwnership()": {
        "details": "Allows the current owner to relinquish control of the contract."
      },
      "transferOwnership(address)": {
        "details": "Allows the current owner to transfer control of the contract to a newOwner.",
        "params": {
          "newOwner": "The address to transfer ownership to."
        }
      }
    },
    "version": 1
  },
  "userdoc": {
    "kind": "user",
    "methods": {
      "renounceOwnership()": {
        "notice": "Renouncing to ownership will leave the contract without an owner. It will not be possible to call the functions with the `onlyOwner` modifier anymore."
      }
    },
    "version": 1
  }
}